{
  "contractName": "Grants",
  "abi": [
    {
      "inputs": [
        {
          "internalType": "address",
          "name": "_erc20",
          "type": "address"
        },
        {
          "internalType": "address",
          "name": "_foundation",
          "type": "address"
        }
      ],
      "stateMutability": "nonpayable",
      "type": "constructor"
    },
    {
      "anonymous": false,
      "inputs": [
        {
          "indexed": true,
          "internalType": "address",
          "name": "owner",
          "type": "address"
        },
        {
          "indexed": true,
          "internalType": "address",
          "name": "spender",
          "type": "address"
        },
        {
          "indexed": false,
          "internalType": "uint256",
          "name": "value",
          "type": "uint256"
        }
      ],
      "name": "Approval",
      "type": "event"
    },
    {
      "anonymous": false,
      "inputs": [
        {
          "indexed": true,
          "internalType": "address",
          "name": "previousOwner",
          "type": "address"
        },
        {
          "indexed": true,
          "internalType": "address",
          "name": "newOwner",
          "type": "address"
        }
      ],
      "name": "OwnershipTransferred",
      "type": "event"
    },
    {
      "anonymous": false,
      "inputs": [
        {
          "indexed": true,
          "internalType": "address",
          "name": "from",
          "type": "address"
        },
        {
          "indexed": true,
          "internalType": "address",
          "name": "to",
          "type": "address"
        },
        {
          "indexed": false,
          "internalType": "uint256",
          "name": "value",
          "type": "uint256"
        }
      ],
      "name": "Transfer",
      "type": "event"
    },
    {
      "inputs": [],
      "name": "owner",
      "outputs": [
        {
          "internalType": "address",
          "name": "",
          "type": "address"
        }
      ],
      "stateMutability": "view",
      "type": "function",
      "constant": true
    },
    {
      "inputs": [
        {
          "internalType": "uint256",
          "name": "",
          "type": "uint256"
        }
      ],
      "name": "proposals",
      "outputs": [
        {
          "internalType": "uint256",
          "name": "amount",
          "type": "uint256"
        },
        {
          "internalType": "address",
          "name": "owner",
          "type": "address"
        },
        {
          "internalType": "uint256",
          "name": "expires",
          "type": "uint256"
        },
        {
          "internalType": "uint256",
          "name": "balance",
          "type": "uint256"
        }
      ],
      "stateMutability": "view",
      "type": "function",
      "constant": true
    },
    {
      "inputs": [],
      "name": "renounceOwnership",
      "outputs": [],
      "stateMutability": "nonpayable",
      "type": "function"
    },
    {
      "inputs": [
        {
          "internalType": "address",
          "name": "newOwner",
          "type": "address"
        }
      ],
      "name": "transferOwnership",
      "outputs": [],
      "stateMutability": "nonpayable",
      "type": "function"
    },
    {
      "inputs": [],
      "name": "grantsCount",
      "outputs": [
        {
          "internalType": "uint256",
          "name": "",
          "type": "uint256"
        }
      ],
      "stateMutability": "view",
      "type": "function",
      "constant": true
    },
    {
      "inputs": [],
      "name": "duration",
      "outputs": [
        {
          "internalType": "uint256",
          "name": "",
          "type": "uint256"
        }
      ],
      "stateMutability": "view",
      "type": "function",
      "constant": true
    },
    {
      "inputs": [
        {
          "internalType": "uint256",
          "name": "value",
          "type": "uint256"
        }
      ],
      "name": "setDuration",
      "outputs": [],
      "stateMutability": "nonpayable",
      "type": "function"
    },
    {
      "inputs": [
        {
          "internalType": "uint256",
          "name": "index",
          "type": "uint256"
        }
      ],
      "name": "claim",
      "outputs": [],
      "stateMutability": "nonpayable",
      "type": "function"
    },
    {
      "inputs": [
        {
          "internalType": "uint256",
          "name": "index",
          "type": "uint256"
        },
        {
          "internalType": "uint256",
          "name": "amount",
          "type": "uint256"
        }
      ],
      "name": "fund",
      "outputs": [],
      "stateMutability": "nonpayable",
      "type": "function"
    },
    {
      "inputs": [
        {
          "internalType": "uint256",
          "name": "index",
          "type": "uint256"
        }
      ],
      "name": "inFundingPeriod",
      "outputs": [
        {
          "internalType": "bool",
          "name": "",
          "type": "bool"
        }
      ],
      "stateMutability": "view",
      "type": "function",
      "constant": true
    },
    {
      "inputs": [
        {
          "internalType": "uint256",
          "name": "amount",
          "type": "uint256"
        }
      ],
      "name": "addProposal",
      "outputs": [
        {
          "internalType": "uint256",
          "name": "",
          "type": "uint256"
        }
      ],
      "stateMutability": "nonpayable",
      "type": "function"
    }
  ],
  "bytecode": "0x60c0604052601e60025534801561001557600080fd5b506040516112bb3803806112bb8339818101604052604081101561003857600080fd5b810190808051906020019092919080519060200190929190505050600061006361025260201b60201c565b9050806000806101000a81548173ffffffffffffffffffffffffffffffffffffffff021916908373ffffffffffffffffffffffffffffffffffffffff1602179055508073ffffffffffffffffffffffffffffffffffffffff16600073ffffffffffffffffffffffffffffffffffffffff167f8be0079c531659141344cd1fd0a4f28419497f9722a3daafe3b4186f6b6457e060405160405180910390a350600073ffffffffffffffffffffffffffffffffffffffff168273ffffffffffffffffffffffffffffffffffffffff161415801561016b5750600073ffffffffffffffffffffffffffffffffffffffff168173ffffffffffffffffffffffffffffffffffffffff1614155b6101dd576040517f08c379a000000000000000000000000000000000000000000000000000000000815260040180806020018281038252600f8152602001807f496e76616c69642061646472657373000000000000000000000000000000000081525060200191505060405180910390fd5b8173ffffffffffffffffffffffffffffffffffffffff1660808173ffffffffffffffffffffffffffffffffffffffff1660601b815250508073ffffffffffffffffffffffffffffffffffffffff1660a08173ffffffffffffffffffffffffffffffffffffffff1660601b81525050505061025a565b600033905090565b60805160601c60a05160601c6110336102886000395080610508528061063e5280610bc252506110336000f3fe608060405234801561001057600080fd5b50600436106100a95760003560e01c80638da5cb5b116100715780638da5cb5b146101b3578063a65e2cfd146101e7578063d0804b031461021f578063f2fde38b14610263578063f349b507146102a7578063f6be71d1146102c5576100a9565b8063013cf08b146100ae5780630fb5a6b41461011b578063379607f5146101395780633fec91a414610167578063715018a6146101a9575b600080fd5b6100da600480360360208110156100c457600080fd5b81019080803590602001909291905050506102f3565b604051808581526020018473ffffffffffffffffffffffffffffffffffffffff16815260200183815260200182815260200194505050505060405180910390f35b610123610353565b6040518082815260200191505060405180910390f35b6101656004803603602081101561014f57600080fd5b810190808035906020019092919050505061035d565b005b6101936004803603602081101561017d57600080fd5b8101908080359060200190929190505050610638565b6040518082815260200191505060405180910390f35b6101b1610854565b005b6101bb6109c1565b604051808273ffffffffffffffffffffffffffffffffffffffff16815260200191505060405180910390f35b61021d600480360360408110156101fd57600080fd5b8101908080359060200190929190803590602001909291905050506109ea565b005b61024b6004803603602081101561023557600080fd5b8101908080359060200190929190505050610ced565b60405180821515815260200191505060405180910390f35b6102a56004803603602081101561027957600080fd5b81019080803573ffffffffffffffffffffffffffffffffffffffff169060200190929190505050610d17565b005b6102af610f09565b6040518082815260200191505060405180910390f35b6102f1600480360360208110156102db57600080fd5b8101908080359060200190929190505050610f16565b005b6001818154811061030357600080fd5b90600052602060002090600402016000915090508060000154908060010160009054906101000a900473ffffffffffffffffffffffffffffffffffffffff16908060020154908060030154905084565b6000600254905090565b6001818154811061036a57fe5b906000526020600020906004020160010160009054906101000a900473ffffffffffffffffffffffffffffffffffffffff1673ffffffffffffffffffffffffffffffffffffffff163373ffffffffffffffffffffffffffffffffffffffff161461043c576040517f08c379a000000000000000000000000000000000000000000000000000000000815260040180806020018281038252600d8152602001807f4d757374206265206f776e65720000000000000000000000000000000000000081525060200191505060405180910390fd5b6000151561044982610ced565b1515146104be576040517f08c379a00000000000000000000000000000000000000000000000000000000081526004018080602001828103825260118152602001807f496e2066756e64696e6720706572696f6400000000000000000000000000000081525060200191505060405180910390fd5b6000600182815481106104cd57fe5b906000526020600020906004020160010160009054906101000a900473ffffffffffffffffffffffffffffffffffffffff16905060003090507f000000000000000000000000000000000000000000000000000000000000000073ffffffffffffffffffffffffffffffffffffffff166323b872dd82846001878154811061055157fe5b9060005260206000209060040201600301546040518463ffffffff1660e01b8152600401808473ffffffffffffffffffffffffffffffffffffffff1681526020018373ffffffffffffffffffffffffffffffffffffffff1681526020018281526020019350505050602060405180830381600087803b1580156105d357600080fd5b505af11580156105e7573d6000803e3d6000fd5b505050506040513d60208110156105fd57600080fd5b81019080805190602001909291905050505060006001848154811061061e57fe5b906000526020600020906004020160030181905550505050565b600060017f000000000000000000000000000000000000000000000000000000000000000073ffffffffffffffffffffffffffffffffffffffff166370a08231336040518263ffffffff1660e01b8152600401808273ffffffffffffffffffffffffffffffffffffffff16815260200191505060206040518083038186803b1580156106c357600080fd5b505afa1580156106d7573d6000803e3d6000fd5b505050506040513d60208110156106ed57600080fd5b81019080805190602001909291905050501015610772576040517f08c379a00000000000000000000000000000000000000000000000000000000081526004018080602001828103825260178152602001807f4e656564206174206c65617374206f6e6520746f6b656e00000000000000000081525060200191505060405180910390fd5b600060405180608001604052808481526020013373ffffffffffffffffffffffffffffffffffffffff16815260200162278d00420181526020016000815250905060018190806001815401808255809150506001900390600052602060002090600402016000909190919091506000820151816000015560208201518160010160006101000a81548173ffffffffffffffffffffffffffffffffffffffff021916908373ffffffffffffffffffffffffffffffffffffffff16021790555060408201518160020155606082015181600301555050600180549050915050919050565b61085c610fcf565b73ffffffffffffffffffffffffffffffffffffffff1661087a6109c1565b73ffffffffffffffffffffffffffffffffffffffff1614610903576040517f08c379a00000000000000000000000000000000000000000000000000000000081526004018080602001828103825260208152602001807f4f776e61626c653a2063616c6c6572206973206e6f7420746865206f776e657281525060200191505060405180910390fd5b600073ffffffffffffffffffffffffffffffffffffffff1660008054906101000a900473ffffffffffffffffffffffffffffffffffffffff1673ffffffffffffffffffffffffffffffffffffffff167f8be0079c531659141344cd1fd0a4f28419497f9722a3daafe3b4186f6b6457e060405160405180910390a360008060006101000a81548173ffffffffffffffffffffffffffffffffffffffff021916908373ffffffffffffffffffffffffffffffffffffffff160217905550565b60008060009054906101000a900473ffffffffffffffffffffffffffffffffffffffff16905090565b6109f382610ced565b610a65576040517f08c379a00000000000000000000000000000000000000000000000000000000081526004018080602001828103825260158152602001807f4e6f7420696e2066756e64696e6720706572696f64000000000000000000000081525060200191505060405180910390fd5b8160018054905010610adf576040517f08c379a000000000000000000000000000000000000000000000000000000000815260040180806020018281038252600d8152602001807f496e76616c696420696e6465780000000000000000000000000000000000000081525060200191505060405180910390fd5b600073ffffffffffffffffffffffffffffffffffffffff1660018381548110610b0457fe5b906000526020600020906004020160010160009054906101000a900473ffffffffffffffffffffffffffffffffffffffff1673ffffffffffffffffffffffffffffffffffffffff161415610bc0576040517f08c379a000000000000000000000000000000000000000000000000000000000815260040180806020018281038252600f8152602001807f496e76616c69642061646472657373000000000000000000000000000000000081525060200191505060405180910390fd5b7f000000000000000000000000000000000000000000000000000000000000000073ffffffffffffffffffffffffffffffffffffffff166323b872dd3360018581548110610c0a57fe5b906000526020600020906004020160010160009054906101000a900473ffffffffffffffffffffffffffffffffffffffff16846040518463ffffffff1660e01b8152600401808473ffffffffffffffffffffffffffffffffffffffff1681526020018373ffffffffffffffffffffffffffffffffffffffff1681526020018281526020019350505050602060405180830381600087803b158015610cad57600080fd5b505af1158015610cc1573d6000803e3d6000fd5b505050506040513d6020811015610cd757600080fd5b8101908080519060200190929190505050505050565b60004260018381548110610cfd57fe5b906000526020600020906004020160020154119050919050565b610d1f610fcf565b73ffffffffffffffffffffffffffffffffffffffff16610d3d6109c1565b73ffffffffffffffffffffffffffffffffffffffff1614610dc6576040517f08c379a00000000000000000000000000000000000000000000000000000000081526004018080602001828103825260208152602001807f4f776e61626c653a2063616c6c6572206973206e6f7420746865206f776e657281525060200191505060405180910390fd5b600073ffffffffffffffffffffffffffffffffffffffff168173ffffffffffffffffffffffffffffffffffffffff161415610e4c576040517f08c379a0000000000000000000000000000000000000000000000000000000008152600401808060200182810382526026815260200180610fd86026913960400191505060405180910390fd5b8073ffffffffffffffffffffffffffffffffffffffff1660008054906101000a900473ffffffffffffffffffffffffffffffffffffffff1673ffffffffffffffffffffffffffffffffffffffff167f8be0079c531659141344cd1fd0a4f28419497f9722a3daafe3b4186f6b6457e060405160405180910390a3806000806101000a81548173ffffffffffffffffffffffffffffffffffffffff021916908373ffffffffffffffffffffffffffffffffffffffff16021790555050565b6000600180549050905090565b610f1e610fcf565b73ffffffffffffffffffffffffffffffffffffffff16610f3c6109c1565b73ffffffffffffffffffffffffffffffffffffffff1614610fc5576040517f08c379a00000000000000000000000000000000000000000000000000000000081526004018080602001828103825260208152602001807f4f776e61626c653a2063616c6c6572206973206e6f7420746865206f776e657281525060200191505060405180910390fd5b8060028190555050565b60003390509056fe4f776e61626c653a206e6577206f776e657220697320746865207a65726f2061646472657373a2646970667358221220b44dd2985c41d68f3485744828f45a595030fe0ecea1219ab8d9613e532047db64736f6c63430007060033",
  "immutableReferences": {
    "23": [
      {
        "length": 32,
        "start": 1288
      },
      {
        "length": 32,
        "start": 1598
      },
      {
        "length": 32,
        "start": 3010
      }
    ]
  },
  "source": "// SPDX-License-Identifier: MIT\npragma solidity >=0.4.22 <0.9.0;\n\nimport \"@openzeppelin/contracts/access/Ownable.sol\";\nimport \"@openzeppelin/contracts/math/SafeMath.sol\";\nimport \"@openzeppelin/contracts/token/ERC20/IERC20.sol\";\n\nstruct Proposal {\n    uint256 amount;\n    address owner;\n    uint256 expires;\n    uint256 balance;\n}\n\ncontract Grants is Ownable {\n    using SafeMath for uint;\n\n    Proposal[] public proposals;\n\n    IERC20 immutable erc20; // Token\n    address immutable foundation;\n\n    uint256 private _duration = 30; // In days\n\n    function grantsCount() public view returns (uint256) {\n        return proposals.length;\n    }\n\n    function duration() public view returns (uint256) {\n        return _duration;\n    }\n\n    function setDuration(uint256 value) public onlyOwner {\n        _duration = value;\n    }\n\n    constructor(address _erc20, address _foundation) {\n        require(_erc20 != address(0) && _foundation != address(0), \"Invalid address\");\n        erc20 = IERC20(_erc20);\n        foundation = _foundation;\n    }\n\n    function claim(uint256 index) public {\n        require(msg.sender == proposals[index].owner, \"Must be owner\");\n        require(inFundingPeriod(index) == false, \"In funding period\");\n        address owner = proposals[index].owner;\n        address rewards = address(this);\n        erc20.transferFrom(rewards, owner, proposals[index].balance);\n        proposals[index].balance = 0;\n    }\n\n    function fund(uint256 index, uint256 amount) external {\n        require(inFundingPeriod(index), \"Not in funding period\");\n        require(proposals.length < index, \"Invalid index\");\n        require(proposals[index].owner != address(0), \"Invalid address\");\n        erc20.transferFrom(msg.sender, proposals[index].owner, amount);\n    }\n\n    function inFundingPeriod(uint256 index) public view returns (bool) {\n        return proposals[index].expires > block.timestamp;\n    }\n\n    function addProposal(uint256 amount) public returns(uint256) {\n        // Only token holders can apply\n        require(erc20.balanceOf(msg.sender) >= 1, \"Need at least one token\");\n        Proposal memory proposal = Proposal(amount, msg.sender, block.timestamp + 30 days, 0);\n        proposals.push(proposal);\n\n        return proposals.length;\n    }\n\n    event Transfer(address indexed from, address indexed to, uint256 value);\n    event Approval(address indexed owner, address indexed spender, uint256 value);\n}",
  "sourcePath": "/home/lucascullen/GitHub/emanate/mn8-token/contracts/Grants.sol",
  "compiler": {
    "name": "solc",
    "version": "0.7.6+commit.7338295f.Emscripten.clang"
  },
  "schemaVersion": "3.3.4",
  "updatedAt": "2021-04-26T23:32:02.583Z",
  "networkType": "ethereum",
  "devdoc": {
    "kind": "dev",
    "methods": {
      "owner()": {
        "details": "Returns the address of the current owner."
      },
      "renounceOwnership()": {
        "details": "Leaves the contract without owner. It will not be possible to call `onlyOwner` functions anymore. Can only be called by the current owner. NOTE: Renouncing ownership will leave the contract without an owner, thereby removing any functionality that is only available to the owner."
      },
      "transferOwnership(address)": {
        "details": "Transfers ownership of the contract to a new account (`newOwner`). Can only be called by the current owner."
      }
    },
    "version": 1
  },
  "userdoc": {
    "kind": "user",
    "methods": {},
    "version": 1
  }
}